{
  "contracts/Fund.sol": {
    "Fund": {
      "abi": [
        {
          "inputs": [
            {
              "internalType": "uint256",
              "name": "",
              "type": "uint256"
            }
          ],
          "name": "campaigns",
          "outputs": [
            {
              "internalType": "address",
              "name": "owner",
              "type": "address"
            },
            {
              "internalType": "string",
              "name": "title",
              "type": "string"
            },
            {
              "internalType": "string",
              "name": "descr",
              "type": "string"
            },
            {
              "internalType": "uint256",
              "name": "target",
              "type": "uint256"
            },
            {
              "internalType": "uint256",
              "name": "amountCollected",
              "type": "uint256"
            }
          ],
          "stateMutability": "view",
          "type": "function"
        },
        {
          "inputs": [
            {
              "internalType": "address",
              "name": "_owner",
              "type": "address"
            },
            {
              "internalType": "string",
              "name": "_title",
              "type": "string"
            },
            {
              "internalType": "string",
              "name": "_descr",
              "type": "string"
            },
            {
              "internalType": "uint256",
              "name": "_target",
              "type": "uint256"
            }
          ],
          "name": "createCampaign",
          "outputs": [
            {
              "internalType": "uint256",
              "name": "",
              "type": "uint256"
            }
          ],
          "stateMutability": "nonpayable",
          "type": "function"
        },
        {
          "inputs": [
            {
              "internalType": "uint256",
              "name": "_id",
              "type": "uint256"
            }
          ],
          "name": "donate",
          "outputs": [],
          "stateMutability": "payable",
          "type": "function"
        },
        {
          "inputs": [],
          "name": "getCampaigns",
          "outputs": [
            {
              "components": [
                {
                  "internalType": "address",
                  "name": "owner",
                  "type": "address"
                },
                {
                  "internalType": "string",
                  "name": "title",
                  "type": "string"
                },
                {
                  "internalType": "string",
                  "name": "descr",
                  "type": "string"
                },
                {
                  "internalType": "uint256",
                  "name": "target",
                  "type": "uint256"
                },
                {
                  "internalType": "uint256",
                  "name": "amountCollected",
                  "type": "uint256"
                },
                {
                  "internalType": "address[]",
                  "name": "donators",
                  "type": "address[]"
                },
                {
                  "internalType": "uint256[]",
                  "name": "donations",
                  "type": "uint256[]"
                }
              ],
              "internalType": "struct Fund.Campaign[]",
              "name": "",
              "type": "tuple[]"
            }
          ],
          "stateMutability": "view",
          "type": "function"
        },
        {
          "inputs": [
            {
              "internalType": "uint256",
              "name": "_id",
              "type": "uint256"
            }
          ],
          "name": "getDonators",
          "outputs": [
            {
              "internalType": "address[]",
              "name": "",
              "type": "address[]"
            },
            {
              "internalType": "uint256[]",
              "name": "",
              "type": "uint256[]"
            }
          ],
          "stateMutability": "view",
          "type": "function"
        },
        {
          "inputs": [],
          "name": "noOfCampaigns",
          "outputs": [
            {
              "internalType": "uint256",
              "name": "",
              "type": "uint256"
            }
          ],
          "stateMutability": "view",
          "type": "function"
        }
      ],
      "evm": {
        "bytecode": {
          "linkReferences": {},
          "object": "6080604052600060015534801561001557600080fd5b50611652806100256000396000f3fe6080604052600436106100555760003560e01c80630fa91fa91461005a578063141961bc1461009857806317818e59146100d9578063a6b0363314610104578063b6abe10e1461012f578063f14faf6f1461016c575b600080fd5b34801561006657600080fd5b50610081600480360381019061007c91906109f1565b610188565b60405161008f929190610bcc565b60405180910390f35b3480156100a457600080fd5b506100bf60048036038101906100ba91906109f1565b610298565b6040516100d0959493929190610cb1565b60405180910390f35b3480156100e557600080fd5b506100ee6103fe565b6040516100fb9190610d12565b60405180910390f35b34801561011057600080fd5b50610119610404565b6040516101269190610fc8565b60405180910390f35b34801561013b57600080fd5b506101566004803603810190610151919061114b565b610737565b6040516101639190610d12565b60405180910390f35b610186600480360381019061018191906109f1565b6107f1565b005b6060806000808481526020019081526020016000206005016000808581526020019081526020016000206006018180548060200260200160405190810160405280929190818152602001828054801561023657602002820191906000526020600020905b8160009054906101000a900473ffffffffffffffffffffffffffffffffffffffff1673ffffffffffffffffffffffffffffffffffffffff16815260200190600101908083116101ec575b505050505091508080548060200260200160405190810160405280929190818152602001828054801561028857602002820191906000526020600020905b815481526020019060010190808311610274575b5050505050905091509150915091565b60006020528060005260406000206000915090508060000160009054906101000a900473ffffffffffffffffffffffffffffffffffffffff16908060010180546102e190611219565b80601f016020809104026020016040519081016040528092919081815260200182805461030d90611219565b801561035a5780601f1061032f5761010080835404028352916020019161035a565b820191906000526020600020905b81548152906001019060200180831161033d57829003601f168201915b50505050509080600201805461036f90611219565b80601f016020809104026020016040519081016040528092919081815260200182805461039b90611219565b80156103e85780601f106103bd576101008083540402835291602001916103e8565b820191906000526020600020905b8154815290600101906020018083116103cb57829003601f168201915b5050505050908060030154908060040154905085565b60015481565b6060600060015467ffffffffffffffff81111561042457610423611020565b5b60405190808252806020026020018201604052801561045d57816020015b61044a610954565b8152602001906001900390816104425790505b50905060005b60015481101561072f5760008060008381526020019081526020016000209050806040518060e00160405290816000820160009054906101000a900473ffffffffffffffffffffffffffffffffffffffff1673ffffffffffffffffffffffffffffffffffffffff1673ffffffffffffffffffffffffffffffffffffffff1681526020016001820180546104f590611219565b80601f016020809104026020016040519081016040528092919081815260200182805461052190611219565b801561056e5780601f106105435761010080835404028352916020019161056e565b820191906000526020600020905b81548152906001019060200180831161055157829003601f168201915b5050505050815260200160028201805461058790611219565b80601f01602080910402602001604051908101604052809291908181526020018280546105b390611219565b80156106005780601f106105d557610100808354040283529160200191610600565b820191906000526020600020905b8154815290600101906020018083116105e357829003601f168201915b505050505081526020016003820154815260200160048201548152602001600582018054806020026020016040519081016040528092919081815260200182805480156106a257602002820191906000526020600020905b8160009054906101000a900473ffffffffffffffffffffffffffffffffffffffff1673ffffffffffffffffffffffffffffffffffffffff1681526020019060010190808311610658575b50505050508152602001600682018054806020026020016040519081016040528092919081815260200182805480156106fa57602002820191906000526020600020905b8154815260200190600101908083116106e6575b5050505050815250508383815181106107165761071561124a565b5b6020026020010181905250508080600101915050610463565b508091505090565b60008060008060015481526020019081526020016000209050858160000160006101000a81548173ffffffffffffffffffffffffffffffffffffffff021916908373ffffffffffffffffffffffffffffffffffffffff160217905550848160010190816107a49190611425565b50838160020190816107b69190611425565b50828160030181905550600160008154809291906107d390611526565b9190505550600180546107e6919061156e565b915050949350505050565b60003490506000806000848152602001908152602001600020905080600501339080600181540180825580915050600190039060005260206000200160009091909190916101000a81548173ffffffffffffffffffffffffffffffffffffffff021916908373ffffffffffffffffffffffffffffffffffffffff1602179055508060060182908060018154018082558091505060019003906000526020600020016000909190919091505560008160000160009054906101000a900473ffffffffffffffffffffffffffffffffffffffff1673ffffffffffffffffffffffffffffffffffffffff16836040516108e6906115d3565b60006040518083038185875af1925050503d8060008114610923576040519150601f19603f3d011682016040523d82523d6000602084013e610928565b606091505b50509050801561094e578282600401600082825461094691906115e8565b925050819055505b50505050565b6040518060e00160405280600073ffffffffffffffffffffffffffffffffffffffff1681526020016060815260200160608152602001600081526020016000815260200160608152602001606081525090565b6000604051905090565b600080fd5b600080fd5b6000819050919050565b6109ce816109bb565b81146109d957600080fd5b50565b6000813590506109eb816109c5565b92915050565b600060208284031215610a0757610a066109b1565b5b6000610a15848285016109dc565b91505092915050565b600081519050919050565b600082825260208201905092915050565b6000819050602082019050919050565b600073ffffffffffffffffffffffffffffffffffffffff82169050919050565b6000610a7582610a4a565b9050919050565b610a8581610a6a565b82525050565b6000610a978383610a7c565b60208301905092915050565b6000602082019050919050565b6000610abb82610a1e565b610ac58185610a29565b9350610ad083610a3a565b8060005b83811015610b01578151610ae88882610a8b565b9750610af383610aa3565b925050600181019050610ad4565b5085935050505092915050565b600081519050919050565b600082825260208201905092915050565b6000819050602082019050919050565b610b43816109bb565b82525050565b6000610b558383610b3a565b60208301905092915050565b6000602082019050919050565b6000610b7982610b0e565b610b838185610b19565b9350610b8e83610b2a565b8060005b83811015610bbf578151610ba68882610b49565b9750610bb183610b61565b925050600181019050610b92565b5085935050505092915050565b60006040820190508181036000830152610be68185610ab0565b90508181036020830152610bfa8184610b6e565b90509392505050565b610c0c81610a6a565b82525050565b600081519050919050565b600082825260208201905092915050565b60005b83811015610c4c578082015181840152602081019050610c31565b60008484015250505050565b6000601f19601f8301169050919050565b6000610c7482610c12565b610c7e8185610c1d565b9350610c8e818560208601610c2e565b610c9781610c58565b840191505092915050565b610cab816109bb565b82525050565b600060a082019050610cc66000830188610c03565b8181036020830152610cd88187610c69565b90508181036040830152610cec8186610c69565b9050610cfb6060830185610ca2565b610d086080830184610ca2565b9695505050505050565b6000602082019050610d276000830184610ca2565b92915050565b600081519050919050565b600082825260208201905092915050565b6000819050602082019050919050565b600082825260208201905092915050565b6000610d7582610c12565b610d7f8185610d59565b9350610d8f818560208601610c2e565b610d9881610c58565b840191505092915050565b600082825260208201905092915050565b6000610dbf82610a1e565b610dc98185610da3565b9350610dd483610a3a565b8060005b83811015610e05578151610dec8882610a8b565b9750610df783610aa3565b925050600181019050610dd8565b5085935050505092915050565b600082825260208201905092915050565b6000610e2e82610b0e565b610e388185610e12565b9350610e4383610b2a565b8060005b83811015610e74578151610e5b8882610b49565b9750610e6683610b61565b925050600181019050610e47565b5085935050505092915050565b600060e083016000830151610e996000860182610a7c565b5060208301518482036020860152610eb18282610d6a565b91505060408301518482036040860152610ecb8282610d6a565b9150506060830151610ee06060860182610b3a565b506080830151610ef36080860182610b3a565b5060a083015184820360a0860152610f0b8282610db4565b91505060c083015184820360c0860152610f258282610e23565b9150508091505092915050565b6000610f3e8383610e81565b905092915050565b6000602082019050919050565b6000610f5e82610d2d565b610f688185610d38565b935083602082028501610f7a85610d49565b8060005b85811015610fb65784840389528151610f978582610f32565b9450610fa283610f46565b925060208a01995050600181019050610f7e565b50829750879550505050505092915050565b60006020820190508181036000830152610fe28184610f53565b905092915050565b610ff381610a6a565b8114610ffe57600080fd5b50565b60008135905061101081610fea565b92915050565b600080fd5b600080fd5b7f4e487b7100000000000000000000000000000000000000000000000000000000600052604160045260246000fd5b61105882610c58565b810181811067ffffffffffffffff8211171561107757611076611020565b5b80604052505050565b600061108a6109a7565b9050611096828261104f565b919050565b600067ffffffffffffffff8211156110b6576110b5611020565b5b6110bf82610c58565b9050602081019050919050565b82818337600083830152505050565b60006110ee6110e98461109b565b611080565b90508281526020810184848401111561110a5761110961101b565b5b6111158482856110cc565b509392505050565b600082601f83011261113257611131611016565b5b81356111428482602086016110db565b91505092915050565b60008060008060808587031215611165576111646109b1565b5b600061117387828801611001565b945050602085013567ffffffffffffffff811115611194576111936109b6565b5b6111a08782880161111d565b935050604085013567ffffffffffffffff8111156111c1576111c06109b6565b5b6111cd8782880161111d565b92505060606111de878288016109dc565b91505092959194509250565b7f4e487b7100000000000000000000000000000000000000000000000000000000600052602260045260246000fd5b6000600282049050600182168061123157607f821691505b602082108103611244576112436111ea565b5b50919050565b7f4e487b7100000000000000000000000000000000000000000000000000000000600052603260045260246000fd5b60008190508160005260206000209050919050565b60006020601f8301049050919050565b600082821b905092915050565b6000600883026112db7fffffffffffffffffffffffffffffffffffffffffffffffffffffffffffffffff8261129e565b6112e5868361129e565b95508019841693508086168417925050509392505050565b6000819050919050565b600061132261131d611318846109bb565b6112fd565b6109bb565b9050919050565b6000819050919050565b61133c83611307565b61135061134882611329565b8484546112ab565b825550505050565b600090565b611365611358565b611370818484611333565b505050565b5b818110156113945761138960008261135d565b600181019050611376565b5050565b601f8211156113d9576113aa81611279565b6113b38461128e565b810160208510156113c2578190505b6113d66113ce8561128e565b830182611375565b50505b505050565b600082821c905092915050565b60006113fc600019846008026113de565b1980831691505092915050565b600061141583836113eb565b9150826002028217905092915050565b61142e82610c12565b67ffffffffffffffff81111561144757611446611020565b5b6114518254611219565b61145c828285611398565b600060209050601f83116001811461148f576000841561147d578287015190505b6114878582611409565b8655506114ef565b601f19841661149d86611279565b60005b828110156114c5578489015182556001820191506020850194506020810190506114a0565b868310156114e257848901516114de601f8916826113eb565b8355505b6001600288020188555050505b505050505050565b7f4e487b7100000000000000000000000000000000000000000000000000000000600052601160045260246000fd5b6000611531826109bb565b91507fffffffffffffffffffffffffffffffffffffffffffffffffffffffffffffffff8203611563576115626114f7565b5b600182019050919050565b6000611579826109bb565b9150611584836109bb565b925082820390508181111561159c5761159b6114f7565b5b92915050565b600081905092915050565b50565b60006115bd6000836115a2565b91506115c8826115ad565b600082019050919050565b60006115de826115b0565b9150819050919050565b60006115f3826109bb565b91506115fe836109bb565b9250828201905080821115611616576116156114f7565b5b9291505056fea2646970667358221220acd8bc039a5e794059e8b8bc37d9ad2113f111b1c777e79989b062d5f390c4d364736f6c63430008180033",
          "opcodes": "PUSH1 0x80 PUSH1 0x40 MSTORE PUSH1 0x0 PUSH1 0x1 SSTORE CALLVALUE DUP1 ISZERO PUSH2 0x15 JUMPI PUSH1 0x0 DUP1 REVERT JUMPDEST POP PUSH2 0x1652 DUP1 PUSH2 0x25 PUSH1 0x0 CODECOPY PUSH1 0x0 RETURN INVALID PUSH1 0x80 PUSH1 0x40 MSTORE PUSH1 0x4 CALLDATASIZE LT PUSH2 0x55 JUMPI PUSH1 0x0 CALLDATALOAD PUSH1 0xE0 SHR DUP1 PUSH4 0xFA91FA9 EQ PUSH2 0x5A JUMPI DUP1 PUSH4 0x141961BC EQ PUSH2 0x98 JUMPI DUP1 PUSH4 0x17818E59 EQ PUSH2 0xD9 JUMPI DUP1 PUSH4 0xA6B03633 EQ PUSH2 0x104 JUMPI DUP1 PUSH4 0xB6ABE10E EQ PUSH2 0x12F JUMPI DUP1 PUSH4 0xF14FAF6F EQ PUSH2 0x16C JUMPI JUMPDEST PUSH1 0x0 DUP1 REVERT JUMPDEST CALLVALUE DUP1 ISZERO PUSH2 0x66 JUMPI PUSH1 0x0 DUP1 REVERT JUMPDEST POP PUSH2 0x81 PUSH1 0x4 DUP1 CALLDATASIZE SUB DUP2 ADD SWAP1 PUSH2 0x7C SWAP2 SWAP1 PUSH2 0x9F1 JUMP JUMPDEST PUSH2 0x188 JUMP JUMPDEST PUSH1 0x40 MLOAD PUSH2 0x8F SWAP3 SWAP2 SWAP1 PUSH2 0xBCC JUMP JUMPDEST PUSH1 0x40 MLOAD DUP1 SWAP2 SUB SWAP1 RETURN JUMPDEST CALLVALUE DUP1 ISZERO PUSH2 0xA4 JUMPI PUSH1 0x0 DUP1 REVERT JUMPDEST POP PUSH2 0xBF PUSH1 0x4 DUP1 CALLDATASIZE SUB DUP2 ADD SWAP1 PUSH2 0xBA SWAP2 SWAP1 PUSH2 0x9F1 JUMP JUMPDEST PUSH2 0x298 JUMP JUMPDEST PUSH1 0x40 MLOAD PUSH2 0xD0 SWAP6 SWAP5 SWAP4 SWAP3 SWAP2 SWAP1 PUSH2 0xCB1 JUMP JUMPDEST PUSH1 0x40 MLOAD DUP1 SWAP2 SUB SWAP1 RETURN JUMPDEST CALLVALUE DUP1 ISZERO PUSH2 0xE5 JUMPI PUSH1 0x0 DUP1 REVERT JUMPDEST POP PUSH2 0xEE PUSH2 0x3FE JUMP JUMPDEST PUSH1 0x40 MLOAD PUSH2 0xFB SWAP2 SWAP1 PUSH2 0xD12 JUMP JUMPDEST PUSH1 0x40 MLOAD DUP1 SWAP2 SUB SWAP1 RETURN JUMPDEST CALLVALUE DUP1 ISZERO PUSH2 0x110 JUMPI PUSH1 0x0 DUP1 REVERT JUMPDEST POP PUSH2 0x119 PUSH2 0x404 JUMP JUMPDEST PUSH1 0x40 MLOAD PUSH2 0x126 SWAP2 SWAP1 PUSH2 0xFC8 JUMP JUMPDEST PUSH1 0x40 MLOAD DUP1 SWAP2 SUB SWAP1 RETURN JUMPDEST CALLVALUE DUP1 ISZERO PUSH2 0x13B JUMPI PUSH1 0x0 DUP1 REVERT JUMPDEST POP PUSH2 0x156 PUSH1 0x4 DUP1 CALLDATASIZE SUB DUP2 ADD SWAP1 PUSH2 0x151 SWAP2 SWAP1 PUSH2 0x114B JUMP JUMPDEST PUSH2 0x737 JUMP JUMPDEST PUSH1 0x40 MLOAD PUSH2 0x163 SWAP2 SWAP1 PUSH2 0xD12 JUMP JUMPDEST PUSH1 0x40 MLOAD DUP1 SWAP2 SUB SWAP1 RETURN JUMPDEST PUSH2 0x186 PUSH1 0x4 DUP1 CALLDATASIZE SUB DUP2 ADD SWAP1 PUSH2 0x181 SWAP2 SWAP1 PUSH2 0x9F1 JUMP JUMPDEST PUSH2 0x7F1 JUMP JUMPDEST STOP JUMPDEST PUSH1 0x60 DUP1 PUSH1 0x0 DUP1 DUP5 DUP2 MSTORE PUSH1 0x20 ADD SWAP1 DUP2 MSTORE PUSH1 0x20 ADD PUSH1 0x0 KECCAK256 PUSH1 0x5 ADD PUSH1 0x0 DUP1 DUP6 DUP2 MSTORE PUSH1 0x20 ADD SWAP1 DUP2 MSTORE PUSH1 0x20 ADD PUSH1 0x0 KECCAK256 PUSH1 0x6 ADD DUP2 DUP1 SLOAD DUP1 PUSH1 0x20 MUL PUSH1 0x20 ADD PUSH1 0x40 MLOAD SWAP1 DUP2 ADD PUSH1 0x40 MSTORE DUP1 SWAP3 SWAP2 SWAP1 DUP2 DUP2 MSTORE PUSH1 0x20 ADD DUP3 DUP1 SLOAD DUP1 ISZERO PUSH2 0x236 JUMPI PUSH1 0x20 MUL DUP3 ADD SWAP2 SWAP1 PUSH1 0x0 MSTORE PUSH1 0x20 PUSH1 0x0 KECCAK256 SWAP1 JUMPDEST DUP2 PUSH1 0x0 SWAP1 SLOAD SWAP1 PUSH2 0x100 EXP SWAP1 DIV PUSH20 0xFFFFFFFFFFFFFFFFFFFFFFFFFFFFFFFFFFFFFFFF AND PUSH20 0xFFFFFFFFFFFFFFFFFFFFFFFFFFFFFFFFFFFFFFFF AND DUP2 MSTORE PUSH1 0x20 ADD SWAP1 PUSH1 0x1 ADD SWAP1 DUP1 DUP4 GT PUSH2 0x1EC JUMPI JUMPDEST POP POP POP POP POP SWAP2 POP DUP1 DUP1 SLOAD DUP1 PUSH1 0x20 MUL PUSH1 0x20 ADD PUSH1 0x40 MLOAD SWAP1 DUP2 ADD PUSH1 0x40 MSTORE DUP1 SWAP3 SWAP2 SWAP1 DUP2 DUP2 MSTORE PUSH1 0x20 ADD DUP3 DUP1 SLOAD DUP1 ISZERO PUSH2 0x288 JUMPI PUSH1 0x20 MUL DUP3 ADD SWAP2 SWAP1 PUSH1 0x0 MSTORE PUSH1 0x20 PUSH1 0x0 KECCAK256 SWAP1 JUMPDEST DUP2 SLOAD DUP2 MSTORE PUSH1 0x20 ADD SWAP1 PUSH1 0x1 ADD SWAP1 DUP1 DUP4 GT PUSH2 0x274 JUMPI JUMPDEST POP POP POP POP POP SWAP1 POP SWAP2 POP SWAP2 POP SWAP2 POP SWAP2 JUMP JUMPDEST PUSH1 0x0 PUSH1 0x20 MSTORE DUP1 PUSH1 0x0 MSTORE PUSH1 0x40 PUSH1 0x0 KECCAK256 PUSH1 0x0 SWAP2 POP SWAP1 POP DUP1 PUSH1 0x0 ADD PUSH1 0x0 SWAP1 SLOAD SWAP1 PUSH2 0x100 EXP SWAP1 DIV PUSH20 0xFFFFFFFFFFFFFFFFFFFFFFFFFFFFFFFFFFFFFFFF AND SWAP1 DUP1 PUSH1 0x1 ADD DUP1 SLOAD PUSH2 0x2E1 SWAP1 PUSH2 0x1219 JUMP JUMPDEST DUP1 PUSH1 0x1F ADD PUSH1 0x20 DUP1 SWAP2 DIV MUL PUSH1 0x20 ADD PUSH1 0x40 MLOAD SWAP1 DUP2 ADD PUSH1 0x40 MSTORE DUP1 SWAP3 SWAP2 SWAP1 DUP2 DUP2 MSTORE PUSH1 0x20 ADD DUP3 DUP1 SLOAD PUSH2 0x30D SWAP1 PUSH2 0x1219 JUMP JUMPDEST DUP1 ISZERO PUSH2 0x35A JUMPI DUP1 PUSH1 0x1F LT PUSH2 0x32F JUMPI PUSH2 0x100 DUP1 DUP4 SLOAD DIV MUL DUP4 MSTORE SWAP2 PUSH1 0x20 ADD SWAP2 PUSH2 0x35A JUMP JUMPDEST DUP3 ADD SWAP2 SWAP1 PUSH1 0x0 MSTORE PUSH1 0x20 PUSH1 0x0 KECCAK256 SWAP1 JUMPDEST DUP2 SLOAD DUP2 MSTORE SWAP1 PUSH1 0x1 ADD SWAP1 PUSH1 0x20 ADD DUP1 DUP4 GT PUSH2 0x33D JUMPI DUP3 SWAP1 SUB PUSH1 0x1F AND DUP3 ADD SWAP2 JUMPDEST POP POP POP POP POP SWAP1 DUP1 PUSH1 0x2 ADD DUP1 SLOAD PUSH2 0x36F SWAP1 PUSH2 0x1219 JUMP JUMPDEST DUP1 PUSH1 0x1F ADD PUSH1 0x20 DUP1 SWAP2 DIV MUL PUSH1 0x20 ADD PUSH1 0x40 MLOAD SWAP1 DUP2 ADD PUSH1 0x40 MSTORE DUP1 SWAP3 SWAP2 SWAP1 DUP2 DUP2 MSTORE PUSH1 0x20 ADD DUP3 DUP1 SLOAD PUSH2 0x39B SWAP1 PUSH2 0x1219 JUMP JUMPDEST DUP1 ISZERO PUSH2 0x3E8 JUMPI DUP1 PUSH1 0x1F LT PUSH2 0x3BD JUMPI PUSH2 0x100 DUP1 DUP4 SLOAD DIV MUL DUP4 MSTORE SWAP2 PUSH1 0x20 ADD SWAP2 PUSH2 0x3E8 JUMP JUMPDEST DUP3 ADD SWAP2 SWAP1 PUSH1 0x0 MSTORE PUSH1 0x20 PUSH1 0x0 KECCAK256 SWAP1 JUMPDEST DUP2 SLOAD DUP2 MSTORE SWAP1 PUSH1 0x1 ADD SWAP1 PUSH1 0x20 ADD DUP1 DUP4 GT PUSH2 0x3CB JUMPI DUP3 SWAP1 SUB PUSH1 0x1F AND DUP3 ADD SWAP2 JUMPDEST POP POP POP POP POP SWAP1 DUP1 PUSH1 0x3 ADD SLOAD SWAP1 DUP1 PUSH1 0x4 ADD SLOAD SWAP1 POP DUP6 JUMP JUMPDEST PUSH1 0x1 SLOAD DUP2 JUMP JUMPDEST PUSH1 0x60 PUSH1 0x0 PUSH1 0x1 SLOAD PUSH8 0xFFFFFFFFFFFFFFFF DUP2 GT ISZERO PUSH2 0x424 JUMPI PUSH2 0x423 PUSH2 0x1020 JUMP JUMPDEST JUMPDEST PUSH1 0x40 MLOAD SWAP1 DUP1 DUP3 MSTORE DUP1 PUSH1 0x20 MUL PUSH1 0x20 ADD DUP3 ADD PUSH1 0x40 MSTORE DUP1 ISZERO PUSH2 0x45D JUMPI DUP2 PUSH1 0x20 ADD JUMPDEST PUSH2 0x44A PUSH2 0x954 JUMP JUMPDEST DUP2 MSTORE PUSH1 0x20 ADD SWAP1 PUSH1 0x1 SWAP1 SUB SWAP1 DUP2 PUSH2 0x442 JUMPI SWAP1 POP JUMPDEST POP SWAP1 POP PUSH1 0x0 JUMPDEST PUSH1 0x1 SLOAD DUP2 LT ISZERO PUSH2 0x72F JUMPI PUSH1 0x0 DUP1 PUSH1 0x0 DUP4 DUP2 MSTORE PUSH1 0x20 ADD SWAP1 DUP2 MSTORE PUSH1 0x20 ADD PUSH1 0x0 KECCAK256 SWAP1 POP DUP1 PUSH1 0x40 MLOAD DUP1 PUSH1 0xE0 ADD PUSH1 0x40 MSTORE SWAP1 DUP2 PUSH1 0x0 DUP3 ADD PUSH1 0x0 SWAP1 SLOAD SWAP1 PUSH2 0x100 EXP SWAP1 DIV PUSH20 0xFFFFFFFFFFFFFFFFFFFFFFFFFFFFFFFFFFFFFFFF AND PUSH20 0xFFFFFFFFFFFFFFFFFFFFFFFFFFFFFFFFFFFFFFFF AND PUSH20 0xFFFFFFFFFFFFFFFFFFFFFFFFFFFFFFFFFFFFFFFF AND DUP2 MSTORE PUSH1 0x20 ADD PUSH1 0x1 DUP3 ADD DUP1 SLOAD PUSH2 0x4F5 SWAP1 PUSH2 0x1219 JUMP JUMPDEST DUP1 PUSH1 0x1F ADD PUSH1 0x20 DUP1 SWAP2 DIV MUL PUSH1 0x20 ADD PUSH1 0x40 MLOAD SWAP1 DUP2 ADD PUSH1 0x40 MSTORE DUP1 SWAP3 SWAP2 SWAP1 DUP2 DUP2 MSTORE PUSH1 0x20 ADD DUP3 DUP1 SLOAD PUSH2 0x521 SWAP1 PUSH2 0x1219 JUMP JUMPDEST DUP1 ISZERO PUSH2 0x56E JUMPI DUP1 PUSH1 0x1F LT PUSH2 0x543 JUMPI PUSH2 0x100 DUP1 DUP4 SLOAD DIV MUL DUP4 MSTORE SWAP2 PUSH1 0x20 ADD SWAP2 PUSH2 0x56E JUMP JUMPDEST DUP3 ADD SWAP2 SWAP1 PUSH1 0x0 MSTORE PUSH1 0x20 PUSH1 0x0 KECCAK256 SWAP1 JUMPDEST DUP2 SLOAD DUP2 MSTORE SWAP1 PUSH1 0x1 ADD SWAP1 PUSH1 0x20 ADD DUP1 DUP4 GT PUSH2 0x551 JUMPI DUP3 SWAP1 SUB PUSH1 0x1F AND DUP3 ADD SWAP2 JUMPDEST POP POP POP POP POP DUP2 MSTORE PUSH1 0x20 ADD PUSH1 0x2 DUP3 ADD DUP1 SLOAD PUSH2 0x587 SWAP1 PUSH2 0x1219 JUMP JUMPDEST DUP1 PUSH1 0x1F ADD PUSH1 0x20 DUP1 SWAP2 DIV MUL PUSH1 0x20 ADD PUSH1 0x40 MLOAD SWAP1 DUP2 ADD PUSH1 0x40 MSTORE DUP1 SWAP3 SWAP2 SWAP1 DUP2 DUP2 MSTORE PUSH1 0x20 ADD DUP3 DUP1 SLOAD PUSH2 0x5B3 SWAP1 PUSH2 0x1219 JUMP JUMPDEST DUP1 ISZERO PUSH2 0x600 JUMPI DUP1 PUSH1 0x1F LT PUSH2 0x5D5 JUMPI PUSH2 0x100 DUP1 DUP4 SLOAD DIV MUL DUP4 MSTORE SWAP2 PUSH1 0x20 ADD SWAP2 PUSH2 0x600 JUMP JUMPDEST DUP3 ADD SWAP2 SWAP1 PUSH1 0x0 MSTORE PUSH1 0x20 PUSH1 0x0 KECCAK256 SWAP1 JUMPDEST DUP2 SLOAD DUP2 MSTORE SWAP1 PUSH1 0x1 ADD SWAP1 PUSH1 0x20 ADD DUP1 DUP4 GT PUSH2 0x5E3 JUMPI DUP3 SWAP1 SUB PUSH1 0x1F AND DUP3 ADD SWAP2 JUMPDEST POP POP POP POP POP DUP2 MSTORE PUSH1 0x20 ADD PUSH1 0x3 DUP3 ADD SLOAD DUP2 MSTORE PUSH1 0x20 ADD PUSH1 0x4 DUP3 ADD SLOAD DUP2 MSTORE PUSH1 0x20 ADD PUSH1 0x5 DUP3 ADD DUP1 SLOAD DUP1 PUSH1 0x20 MUL PUSH1 0x20 ADD PUSH1 0x40 MLOAD SWAP1 DUP2 ADD PUSH1 0x40 MSTORE DUP1 SWAP3 SWAP2 SWAP1 DUP2 DUP2 MSTORE PUSH1 0x20 ADD DUP3 DUP1 SLOAD DUP1 ISZERO PUSH2 0x6A2 JUMPI PUSH1 0x20 MUL DUP3 ADD SWAP2 SWAP1 PUSH1 0x0 MSTORE PUSH1 0x20 PUSH1 0x0 KECCAK256 SWAP1 JUMPDEST DUP2 PUSH1 0x0 SWAP1 SLOAD SWAP1 PUSH2 0x100 EXP SWAP1 DIV PUSH20 0xFFFFFFFFFFFFFFFFFFFFFFFFFFFFFFFFFFFFFFFF AND PUSH20 0xFFFFFFFFFFFFFFFFFFFFFFFFFFFFFFFFFFFFFFFF AND DUP2 MSTORE PUSH1 0x20 ADD SWAP1 PUSH1 0x1 ADD SWAP1 DUP1 DUP4 GT PUSH2 0x658 JUMPI JUMPDEST POP POP POP POP POP DUP2 MSTORE PUSH1 0x20 ADD PUSH1 0x6 DUP3 ADD DUP1 SLOAD DUP1 PUSH1 0x20 MUL PUSH1 0x20 ADD PUSH1 0x40 MLOAD SWAP1 DUP2 ADD PUSH1 0x40 MSTORE DUP1 SWAP3 SWAP2 SWAP1 DUP2 DUP2 MSTORE PUSH1 0x20 ADD DUP3 DUP1 SLOAD DUP1 ISZERO PUSH2 0x6FA JUMPI PUSH1 0x20 MUL DUP3 ADD SWAP2 SWAP1 PUSH1 0x0 MSTORE PUSH1 0x20 PUSH1 0x0 KECCAK256 SWAP1 JUMPDEST DUP2 SLOAD DUP2 MSTORE PUSH1 0x20 ADD SWAP1 PUSH1 0x1 ADD SWAP1 DUP1 DUP4 GT PUSH2 0x6E6 JUMPI JUMPDEST POP POP POP POP POP DUP2 MSTORE POP POP DUP4 DUP4 DUP2 MLOAD DUP2 LT PUSH2 0x716 JUMPI PUSH2 0x715 PUSH2 0x124A JUMP JUMPDEST JUMPDEST PUSH1 0x20 MUL PUSH1 0x20 ADD ADD DUP2 SWAP1 MSTORE POP POP DUP1 DUP1 PUSH1 0x1 ADD SWAP2 POP POP PUSH2 0x463 JUMP JUMPDEST POP DUP1 SWAP2 POP POP SWAP1 JUMP JUMPDEST PUSH1 0x0 DUP1 PUSH1 0x0 DUP1 PUSH1 0x1 SLOAD DUP2 MSTORE PUSH1 0x20 ADD SWAP1 DUP2 MSTORE PUSH1 0x20 ADD PUSH1 0x0 KECCAK256 SWAP1 POP DUP6 DUP2 PUSH1 0x0 ADD PUSH1 0x0 PUSH2 0x100 EXP DUP2 SLOAD DUP2 PUSH20 0xFFFFFFFFFFFFFFFFFFFFFFFFFFFFFFFFFFFFFFFF MUL NOT AND SWAP1 DUP4 PUSH20 0xFFFFFFFFFFFFFFFFFFFFFFFFFFFFFFFFFFFFFFFF AND MUL OR SWAP1 SSTORE POP DUP5 DUP2 PUSH1 0x1 ADD SWAP1 DUP2 PUSH2 0x7A4 SWAP2 SWAP1 PUSH2 0x1425 JUMP JUMPDEST POP DUP4 DUP2 PUSH1 0x2 ADD SWAP1 DUP2 PUSH2 0x7B6 SWAP2 SWAP1 PUSH2 0x1425 JUMP JUMPDEST POP DUP3 DUP2 PUSH1 0x3 ADD DUP2 SWAP1 SSTORE POP PUSH1 0x1 PUSH1 0x0 DUP2 SLOAD DUP1 SWAP3 SWAP2 SWAP1 PUSH2 0x7D3 SWAP1 PUSH2 0x1526 JUMP JUMPDEST SWAP2 SWAP1 POP SSTORE POP PUSH1 0x1 DUP1 SLOAD PUSH2 0x7E6 SWAP2 SWAP1 PUSH2 0x156E JUMP JUMPDEST SWAP2 POP POP SWAP5 SWAP4 POP POP POP POP JUMP JUMPDEST PUSH1 0x0 CALLVALUE SWAP1 POP PUSH1 0x0 DUP1 PUSH1 0x0 DUP5 DUP2 MSTORE PUSH1 0x20 ADD SWAP1 DUP2 MSTORE PUSH1 0x20 ADD PUSH1 0x0 KECCAK256 SWAP1 POP DUP1 PUSH1 0x5 ADD CALLER SWAP1 DUP1 PUSH1 0x1 DUP2 SLOAD ADD DUP1 DUP3 SSTORE DUP1 SWAP2 POP POP PUSH1 0x1 SWAP1 SUB SWAP1 PUSH1 0x0 MSTORE PUSH1 0x20 PUSH1 0x0 KECCAK256 ADD PUSH1 0x0 SWAP1 SWAP2 SWAP1 SWAP2 SWAP1 SWAP2 PUSH2 0x100 EXP DUP2 SLOAD DUP2 PUSH20 0xFFFFFFFFFFFFFFFFFFFFFFFFFFFFFFFFFFFFFFFF MUL NOT AND SWAP1 DUP4 PUSH20 0xFFFFFFFFFFFFFFFFFFFFFFFFFFFFFFFFFFFFFFFF AND MUL OR SWAP1 SSTORE POP DUP1 PUSH1 0x6 ADD DUP3 SWAP1 DUP1 PUSH1 0x1 DUP2 SLOAD ADD DUP1 DUP3 SSTORE DUP1 SWAP2 POP POP PUSH1 0x1 SWAP1 SUB SWAP1 PUSH1 0x0 MSTORE PUSH1 0x20 PUSH1 0x0 KECCAK256 ADD PUSH1 0x0 SWAP1 SWAP2 SWAP1 SWAP2 SWAP1 SWAP2 POP SSTORE PUSH1 0x0 DUP2 PUSH1 0x0 ADD PUSH1 0x0 SWAP1 SLOAD SWAP1 PUSH2 0x100 EXP SWAP1 DIV PUSH20 0xFFFFFFFFFFFFFFFFFFFFFFFFFFFFFFFFFFFFFFFF AND PUSH20 0xFFFFFFFFFFFFFFFFFFFFFFFFFFFFFFFFFFFFFFFF AND DUP4 PUSH1 0x40 MLOAD PUSH2 0x8E6 SWAP1 PUSH2 0x15D3 JUMP JUMPDEST PUSH1 0x0 PUSH1 0x40 MLOAD DUP1 DUP4 SUB DUP2 DUP6 DUP8 GAS CALL SWAP3 POP POP POP RETURNDATASIZE DUP1 PUSH1 0x0 DUP2 EQ PUSH2 0x923 JUMPI PUSH1 0x40 MLOAD SWAP2 POP PUSH1 0x1F NOT PUSH1 0x3F RETURNDATASIZE ADD AND DUP3 ADD PUSH1 0x40 MSTORE RETURNDATASIZE DUP3 MSTORE RETURNDATASIZE PUSH1 0x0 PUSH1 0x20 DUP5 ADD RETURNDATACOPY PUSH2 0x928 JUMP JUMPDEST PUSH1 0x60 SWAP2 POP JUMPDEST POP POP SWAP1 POP DUP1 ISZERO PUSH2 0x94E JUMPI DUP3 DUP3 PUSH1 0x4 ADD PUSH1 0x0 DUP3 DUP3 SLOAD PUSH2 0x946 SWAP2 SWAP1 PUSH2 0x15E8 JUMP JUMPDEST SWAP3 POP POP DUP2 SWAP1 SSTORE POP JUMPDEST POP POP POP POP JUMP JUMPDEST PUSH1 0x40 MLOAD DUP1 PUSH1 0xE0 ADD PUSH1 0x40 MSTORE DUP1 PUSH1 0x0 PUSH20 0xFFFFFFFFFFFFFFFFFFFFFFFFFFFFFFFFFFFFFFFF AND DUP2 MSTORE PUSH1 0x20 ADD PUSH1 0x60 DUP2 MSTORE PUSH1 0x20 ADD PUSH1 0x60 DUP2 MSTORE PUSH1 0x20 ADD PUSH1 0x0 DUP2 MSTORE PUSH1 0x20 ADD PUSH1 0x0 DUP2 MSTORE PUSH1 0x20 ADD PUSH1 0x60 DUP2 MSTORE PUSH1 0x20 ADD PUSH1 0x60 DUP2 MSTORE POP SWAP1 JUMP JUMPDEST PUSH1 0x0 PUSH1 0x40 MLOAD SWAP1 POP SWAP1 JUMP JUMPDEST PUSH1 0x0 DUP1 REVERT JUMPDEST PUSH1 0x0 DUP1 REVERT JUMPDEST PUSH1 0x0 DUP2 SWAP1 POP SWAP2 SWAP1 POP JUMP JUMPDEST PUSH2 0x9CE DUP2 PUSH2 0x9BB JUMP JUMPDEST DUP2 EQ PUSH2 0x9D9 JUMPI PUSH1 0x0 DUP1 REVERT JUMPDEST POP JUMP JUMPDEST PUSH1 0x0 DUP2 CALLDATALOAD SWAP1 POP PUSH2 0x9EB DUP2 PUSH2 0x9C5 JUMP JUMPDEST SWAP3 SWAP2 POP POP JUMP JUMPDEST PUSH1 0x0 PUSH1 0x20 DUP3 DUP5 SUB SLT ISZERO PUSH2 0xA07 JUMPI PUSH2 0xA06 PUSH2 0x9B1 JUMP JUMPDEST JUMPDEST PUSH1 0x0 PUSH2 0xA15 DUP5 DUP3 DUP6 ADD PUSH2 0x9DC JUMP JUMPDEST SWAP2 POP POP SWAP3 SWAP2 POP POP JUMP JUMPDEST PUSH1 0x0 DUP2 MLOAD SWAP1 POP SWAP2 SWAP1 POP JUMP JUMPDEST PUSH1 0x0 DUP3 DUP3 MSTORE PUSH1 0x20 DUP3 ADD SWAP1 POP SWAP3 SWAP2 POP POP JUMP JUMPDEST PUSH1 0x0 DUP2 SWAP1 POP PUSH1 0x20 DUP3 ADD SWAP1 POP SWAP2 SWAP1 POP JUMP JUMPDEST PUSH1 0x0 PUSH20 0xFFFFFFFFFFFFFFFFFFFFFFFFFFFFFFFFFFFFFFFF DUP3 AND SWAP1 POP SWAP2 SWAP1 POP JUMP JUMPDEST PUSH1 0x0 PUSH2 0xA75 DUP3 PUSH2 0xA4A JUMP JUMPDEST SWAP1 POP SWAP2 SWAP1 POP JUMP JUMPDEST PUSH2 0xA85 DUP2 PUSH2 0xA6A JUMP JUMPDEST DUP3 MSTORE POP POP JUMP JUMPDEST PUSH1 0x0 PUSH2 0xA97 DUP4 DUP4 PUSH2 0xA7C JUMP JUMPDEST PUSH1 0x20 DUP4 ADD SWAP1 POP SWAP3 SWAP2 POP POP JUMP JUMPDEST PUSH1 0x0 PUSH1 0x20 DUP3 ADD SWAP1 POP SWAP2 SWAP1 POP JUMP JUMPDEST PUSH1 0x0 PUSH2 0xABB DUP3 PUSH2 0xA1E JUMP JUMPDEST PUSH2 0xAC5 DUP2 DUP6 PUSH2 0xA29 JUMP JUMPDEST SWAP4 POP PUSH2 0xAD0 DUP4 PUSH2 0xA3A JUMP JUMPDEST DUP1 PUSH1 0x0 JUMPDEST DUP4 DUP2 LT ISZERO PUSH2 0xB01 JUMPI DUP2 MLOAD PUSH2 0xAE8 DUP9 DUP3 PUSH2 0xA8B JUMP JUMPDEST SWAP8 POP PUSH2 0xAF3 DUP4 PUSH2 0xAA3 JUMP JUMPDEST SWAP3 POP POP PUSH1 0x1 DUP2 ADD SWAP1 POP PUSH2 0xAD4 JUMP JUMPDEST POP DUP6 SWAP4 POP POP POP POP SWAP3 SWAP2 POP POP JUMP JUMPDEST PUSH1 0x0 DUP2 MLOAD SWAP1 POP SWAP2 SWAP1 POP JUMP JUMPDEST PUSH1 0x0 DUP3 DUP3 MSTORE PUSH1 0x20 DUP3 ADD SWAP1 POP SWAP3 SWAP2 POP POP JUMP JUMPDEST PUSH1 0x0 DUP2 SWAP1 POP PUSH1 0x20 DUP3 ADD SWAP1 POP SWAP2 SWAP1 POP JUMP JUMPDEST PUSH2 0xB43 DUP2 PUSH2 0x9BB JUMP JUMPDEST DUP3 MSTORE POP POP JUMP JUMPDEST PUSH1 0x0 PUSH2 0xB55 DUP4 DUP4 PUSH2 0xB3A JUMP JUMPDEST PUSH1 0x20 DUP4 ADD SWAP1 POP SWAP3 SWAP2 POP POP JUMP JUMPDEST PUSH1 0x0 PUSH1 0x20 DUP3 ADD SWAP1 POP SWAP2 SWAP1 POP JUMP JUMPDEST PUSH1 0x0 PUSH2 0xB79 DUP3 PUSH2 0xB0E JUMP JUMPDEST PUSH2 0xB83 DUP2 DUP6 PUSH2 0xB19 JUMP JUMPDEST SWAP4 POP PUSH2 0xB8E DUP4 PUSH2 0xB2A JUMP JUMPDEST DUP1 PUSH1 0x0 JUMPDEST DUP4 DUP2 LT ISZERO PUSH2 0xBBF JUMPI DUP2 MLOAD PUSH2 0xBA6 DUP9 DUP3 PUSH2 0xB49 JUMP JUMPDEST SWAP8 POP PUSH2 0xBB1 DUP4 PUSH2 0xB61 JUMP JUMPDEST SWAP3 POP POP PUSH1 0x1 DUP2 ADD SWAP1 POP PUSH2 0xB92 JUMP JUMPDEST POP DUP6 SWAP4 POP POP POP POP SWAP3 SWAP2 POP POP JUMP JUMPDEST PUSH1 0x0 PUSH1 0x40 DUP3 ADD SWAP1 POP DUP2 DUP2 SUB PUSH1 0x0 DUP4 ADD MSTORE PUSH2 0xBE6 DUP2 DUP6 PUSH2 0xAB0 JUMP JUMPDEST SWAP1 POP DUP2 DUP2 SUB PUSH1 0x20 DUP4 ADD MSTORE PUSH2 0xBFA DUP2 DUP5 PUSH2 0xB6E JUMP JUMPDEST SWAP1 POP SWAP4 SWAP3 POP POP POP JUMP JUMPDEST PUSH2 0xC0C DUP2 PUSH2 0xA6A JUMP JUMPDEST DUP3 MSTORE POP POP JUMP JUMPDEST PUSH1 0x0 DUP2 MLOAD SWAP1 POP SWAP2 SWAP1 POP JUMP JUMPDEST PUSH1 0x0 DUP3 DUP3 MSTORE PUSH1 0x20 DUP3 ADD SWAP1 POP SWAP3 SWAP2 POP POP JUMP JUMPDEST PUSH1 0x0 JUMPDEST DUP4 DUP2 LT ISZERO PUSH2 0xC4C JUMPI DUP1 DUP3 ADD MLOAD DUP2 DUP5 ADD MSTORE PUSH1 0x20 DUP2 ADD SWAP1 POP PUSH2 0xC31 JUMP JUMPDEST PUSH1 0x0 DUP5 DUP5 ADD MSTORE POP POP POP POP JUMP JUMPDEST PUSH1 0x0 PUSH1 0x1F NOT PUSH1 0x1F DUP4 ADD AND SWAP1 POP SWAP2 SWAP1 POP JUMP JUMPDEST PUSH1 0x0 PUSH2 0xC74 DUP3 PUSH2 0xC12 JUMP JUMPDEST PUSH2 0xC7E DUP2 DUP6 PUSH2 0xC1D JUMP JUMPDEST SWAP4 POP PUSH2 0xC8E DUP2 DUP6 PUSH1 0x20 DUP7 ADD PUSH2 0xC2E JUMP JUMPDEST PUSH2 0xC97 DUP2 PUSH2 0xC58 JUMP JUMPDEST DUP5 ADD SWAP2 POP POP SWAP3 SWAP2 POP POP JUMP JUMPDEST PUSH2 0xCAB DUP2 PUSH2 0x9BB JUMP JUMPDEST DUP3 MSTORE POP POP JUMP JUMPDEST PUSH1 0x0 PUSH1 0xA0 DUP3 ADD SWAP1 POP PUSH2 0xCC6 PUSH1 0x0 DUP4 ADD DUP9 PUSH2 0xC03 JUMP JUMPDEST DUP2 DUP2 SUB PUSH1 0x20 DUP4 ADD MSTORE PUSH2 0xCD8 DUP2 DUP8 PUSH2 0xC69 JUMP JUMPDEST SWAP1 POP DUP2 DUP2 SUB PUSH1 0x40 DUP4 ADD MSTORE PUSH2 0xCEC DUP2 DUP7 PUSH2 0xC69 JUMP JUMPDEST SWAP1 POP PUSH2 0xCFB PUSH1 0x60 DUP4 ADD DUP6 PUSH2 0xCA2 JUMP JUMPDEST PUSH2 0xD08 PUSH1 0x80 DUP4 ADD DUP5 PUSH2 0xCA2 JUMP JUMPDEST SWAP7 SWAP6 POP POP POP POP POP POP JUMP JUMPDEST PUSH1 0x0 PUSH1 0x20 DUP3 ADD SWAP1 POP PUSH2 0xD27 PUSH1 0x0 DUP4 ADD DUP5 PUSH2 0xCA2 JUMP JUMPDEST SWAP3 SWAP2 POP POP JUMP JUMPDEST PUSH1 0x0 DUP2 MLOAD SWAP1 POP SWAP2 SWAP1 POP JUMP JUMPDEST PUSH1 0x0 DUP3 DUP3 MSTORE PUSH1 0x20 DUP3 ADD SWAP1 POP SWAP3 SWAP2 POP POP JUMP JUMPDEST PUSH1 0x0 DUP2 SWAP1 POP PUSH1 0x20 DUP3 ADD SWAP1 POP SWAP2 SWAP1 POP JUMP JUMPDEST PUSH1 0x0 DUP3 DUP3 MSTORE PUSH1 0x20 DUP3 ADD SWAP1 POP SWAP3 SWAP2 POP POP JUMP JUMPDEST PUSH1 0x0 PUSH2 0xD75 DUP3 PUSH2 0xC12 JUMP JUMPDEST PUSH2 0xD7F DUP2 DUP6 PUSH2 0xD59 JUMP JUMPDEST SWAP4 POP PUSH2 0xD8F DUP2 DUP6 PUSH1 0x20 DUP7 ADD PUSH2 0xC2E JUMP JUMPDEST PUSH2 0xD98 DUP2 PUSH2 0xC58 JUMP JUMPDEST DUP5 ADD SWAP2 POP POP SWAP3 SWAP2 POP POP JUMP JUMPDEST PUSH1 0x0 DUP3 DUP3 MSTORE PUSH1 0x20 DUP3 ADD SWAP1 POP SWAP3 SWAP2 POP POP JUMP JUMPDEST PUSH1 0x0 PUSH2 0xDBF DUP3 PUSH2 0xA1E JUMP JUMPDEST PUSH2 0xDC9 DUP2 DUP6 PUSH2 0xDA3 JUMP JUMPDEST SWAP4 POP PUSH2 0xDD4 DUP4 PUSH2 0xA3A JUMP JUMPDEST DUP1 PUSH1 0x0 JUMPDEST DUP4 DUP2 LT ISZERO PUSH2 0xE05 JUMPI DUP2 MLOAD PUSH2 0xDEC DUP9 DUP3 PUSH2 0xA8B JUMP JUMPDEST SWAP8 POP PUSH2 0xDF7 DUP4 PUSH2 0xAA3 JUMP JUMPDEST SWAP3 POP POP PUSH1 0x1 DUP2 ADD SWAP1 POP PUSH2 0xDD8 JUMP JUMPDEST POP DUP6 SWAP4 POP POP POP POP SWAP3 SWAP2 POP POP JUMP JUMPDEST PUSH1 0x0 DUP3 DUP3 MSTORE PUSH1 0x20 DUP3 ADD SWAP1 POP SWAP3 SWAP2 POP POP JUMP JUMPDEST PUSH1 0x0 PUSH2 0xE2E DUP3 PUSH2 0xB0E JUMP JUMPDEST PUSH2 0xE38 DUP2 DUP6 PUSH2 0xE12 JUMP JUMPDEST SWAP4 POP PUSH2 0xE43 DUP4 PUSH2 0xB2A JUMP JUMPDEST DUP1 PUSH1 0x0 JUMPDEST DUP4 DUP2 LT ISZERO PUSH2 0xE74 JUMPI DUP2 MLOAD PUSH2 0xE5B DUP9 DUP3 PUSH2 0xB49 JUMP JUMPDEST SWAP8 POP PUSH2 0xE66 DUP4 PUSH2 0xB61 JUMP JUMPDEST SWAP3 POP POP PUSH1 0x1 DUP2 ADD SWAP1 POP PUSH2 0xE47 JUMP JUMPDEST POP DUP6 SWAP4 POP POP POP POP SWAP3 SWAP2 POP POP JUMP JUMPDEST PUSH1 0x0 PUSH1 0xE0 DUP4 ADD PUSH1 0x0 DUP4 ADD MLOAD PUSH2 0xE99 PUSH1 0x0 DUP7 ADD DUP3 PUSH2 0xA7C JUMP JUMPDEST POP PUSH1 0x20 DUP4 ADD MLOAD DUP5 DUP3 SUB PUSH1 0x20 DUP7 ADD MSTORE PUSH2 0xEB1 DUP3 DUP3 PUSH2 0xD6A JUMP JUMPDEST SWAP2 POP POP PUSH1 0x40 DUP4 ADD MLOAD DUP5 DUP3 SUB PUSH1 0x40 DUP7 ADD MSTORE PUSH2 0xECB DUP3 DUP3 PUSH2 0xD6A JUMP JUMPDEST SWAP2 POP POP PUSH1 0x60 DUP4 ADD MLOAD PUSH2 0xEE0 PUSH1 0x60 DUP7 ADD DUP3 PUSH2 0xB3A JUMP JUMPDEST POP PUSH1 0x80 DUP4 ADD MLOAD PUSH2 0xEF3 PUSH1 0x80 DUP7 ADD DUP3 PUSH2 0xB3A JUMP JUMPDEST POP PUSH1 0xA0 DUP4 ADD MLOAD DUP5 DUP3 SUB PUSH1 0xA0 DUP7 ADD MSTORE PUSH2 0xF0B DUP3 DUP3 PUSH2 0xDB4 JUMP JUMPDEST SWAP2 POP POP PUSH1 0xC0 DUP4 ADD MLOAD DUP5 DUP3 SUB PUSH1 0xC0 DUP7 ADD MSTORE PUSH2 0xF25 DUP3 DUP3 PUSH2 0xE23 JUMP JUMPDEST SWAP2 POP POP DUP1 SWAP2 POP POP SWAP3 SWAP2 POP POP JUMP JUMPDEST PUSH1 0x0 PUSH2 0xF3E DUP4 DUP4 PUSH2 0xE81 JUMP JUMPDEST SWAP1 POP SWAP3 SWAP2 POP POP JUMP JUMPDEST PUSH1 0x0 PUSH1 0x20 DUP3 ADD SWAP1 POP SWAP2 SWAP1 POP JUMP JUMPDEST PUSH1 0x0 PUSH2 0xF5E DUP3 PUSH2 0xD2D JUMP JUMPDEST PUSH2 0xF68 DUP2 DUP6 PUSH2 0xD38 JUMP JUMPDEST SWAP4 POP DUP4 PUSH1 0x20 DUP3 MUL DUP6 ADD PUSH2 0xF7A DUP6 PUSH2 0xD49 JUMP JUMPDEST DUP1 PUSH1 0x0 JUMPDEST DUP6 DUP2 LT ISZERO PUSH2 0xFB6 JUMPI DUP5 DUP5 SUB DUP10 MSTORE DUP2 MLOAD PUSH2 0xF97 DUP6 DUP3 PUSH2 0xF32 JUMP JUMPDEST SWAP5 POP PUSH2 0xFA2 DUP4 PUSH2 0xF46 JUMP JUMPDEST SWAP3 POP PUSH1 0x20 DUP11 ADD SWAP10 POP POP PUSH1 0x1 DUP2 ADD SWAP1 POP PUSH2 0xF7E JUMP JUMPDEST POP DUP3 SWAP8 POP DUP8 SWAP6 POP POP POP POP POP POP SWAP3 SWAP2 POP POP JUMP JUMPDEST PUSH1 0x0 PUSH1 0x20 DUP3 ADD SWAP1 POP DUP2 DUP2 SUB PUSH1 0x0 DUP4 ADD MSTORE PUSH2 0xFE2 DUP2 DUP5 PUSH2 0xF53 JUMP JUMPDEST SWAP1 POP SWAP3 SWAP2 POP POP JUMP JUMPDEST PUSH2 0xFF3 DUP2 PUSH2 0xA6A JUMP JUMPDEST DUP2 EQ PUSH2 0xFFE JUMPI PUSH1 0x0 DUP1 REVERT JUMPDEST POP JUMP JUMPDEST PUSH1 0x0 DUP2 CALLDATALOAD SWAP1 POP PUSH2 0x1010 DUP2 PUSH2 0xFEA JUMP JUMPDEST SWAP3 SWAP2 POP POP JUMP JUMPDEST PUSH1 0x0 DUP1 REVERT JUMPDEST PUSH1 0x0 DUP1 REVERT JUMPDEST PUSH32 0x4E487B7100000000000000000000000000000000000000000000000000000000 PUSH1 0x0 MSTORE PUSH1 0x41 PUSH1 0x4 MSTORE PUSH1 0x24 PUSH1 0x0 REVERT JUMPDEST PUSH2 0x1058 DUP3 PUSH2 0xC58 JUMP JUMPDEST DUP2 ADD DUP2 DUP2 LT PUSH8 0xFFFFFFFFFFFFFFFF DUP3 GT OR ISZERO PUSH2 0x1077 JUMPI PUSH2 0x1076 PUSH2 0x1020 JUMP JUMPDEST JUMPDEST DUP1 PUSH1 0x40 MSTORE POP POP POP JUMP JUMPDEST PUSH1 0x0 PUSH2 0x108A PUSH2 0x9A7 JUMP JUMPDEST SWAP1 POP PUSH2 0x1096 DUP3 DUP3 PUSH2 0x104F JUMP JUMPDEST SWAP2 SWAP1 POP JUMP JUMPDEST PUSH1 0x0 PUSH8 0xFFFFFFFFFFFFFFFF DUP3 GT ISZERO PUSH2 0x10B6 JUMPI PUSH2 0x10B5 PUSH2 0x1020 JUMP JUMPDEST JUMPDEST PUSH2 0x10BF DUP3 PUSH2 0xC58 JUMP JUMPDEST SWAP1 POP PUSH1 0x20 DUP2 ADD SWAP1 POP SWAP2 SWAP1 POP JUMP JUMPDEST DUP3 DUP2 DUP4 CALLDATACOPY PUSH1 0x0 DUP4 DUP4 ADD MSTORE POP POP POP JUMP JUMPDEST PUSH1 0x0 PUSH2 0x10EE PUSH2 0x10E9 DUP5 PUSH2 0x109B JUMP JUMPDEST PUSH2 0x1080 JUMP JUMPDEST SWAP1 POP DUP3 DUP2 MSTORE PUSH1 0x20 DUP2 ADD DUP5 DUP5 DUP5 ADD GT ISZERO PUSH2 0x110A JUMPI PUSH2 0x1109 PUSH2 0x101B JUMP JUMPDEST JUMPDEST PUSH2 0x1115 DUP5 DUP3 DUP6 PUSH2 0x10CC JUMP JUMPDEST POP SWAP4 SWAP3 POP POP POP JUMP JUMPDEST PUSH1 0x0 DUP3 PUSH1 0x1F DUP4 ADD SLT PUSH2 0x1132 JUMPI PUSH2 0x1131 PUSH2 0x1016 JUMP JUMPDEST JUMPDEST DUP2 CALLDATALOAD PUSH2 0x1142 DUP5 DUP3 PUSH1 0x20 DUP7 ADD PUSH2 0x10DB JUMP JUMPDEST SWAP2 POP POP SWAP3 SWAP2 POP POP JUMP JUMPDEST PUSH1 0x0 DUP1 PUSH1 0x0 DUP1 PUSH1 0x80 DUP6 DUP8 SUB SLT ISZERO PUSH2 0x1165 JUMPI PUSH2 0x1164 PUSH2 0x9B1 JUMP JUMPDEST JUMPDEST PUSH1 0x0 PUSH2 0x1173 DUP8 DUP3 DUP9 ADD PUSH2 0x1001 JUMP JUMPDEST SWAP5 POP POP PUSH1 0x20 DUP6 ADD CALLDATALOAD PUSH8 0xFFFFFFFFFFFFFFFF DUP2 GT ISZERO PUSH2 0x1194 JUMPI PUSH2 0x1193 PUSH2 0x9B6 JUMP JUMPDEST JUMPDEST PUSH2 0x11A0 DUP8 DUP3 DUP9 ADD PUSH2 0x111D JUMP JUMPDEST SWAP4 POP POP PUSH1 0x40 DUP6 ADD CALLDATALOAD PUSH8 0xFFFFFFFFFFFFFFFF DUP2 GT ISZERO PUSH2 0x11C1 JUMPI PUSH2 0x11C0 PUSH2 0x9B6 JUMP JUMPDEST JUMPDEST PUSH2 0x11CD DUP8 DUP3 DUP9 ADD PUSH2 0x111D JUMP JUMPDEST SWAP3 POP POP PUSH1 0x60 PUSH2 0x11DE DUP8 DUP3 DUP9 ADD PUSH2 0x9DC JUMP JUMPDEST SWAP2 POP POP SWAP3 SWAP6 SWAP2 SWAP5 POP SWAP3 POP JUMP JUMPDEST PUSH32 0x4E487B7100000000000000000000000000000000000000000000000000000000 PUSH1 0x0 MSTORE PUSH1 0x22 PUSH1 0x4 MSTORE PUSH1 0x24 PUSH1 0x0 REVERT JUMPDEST PUSH1 0x0 PUSH1 0x2 DUP3 DIV SWAP1 POP PUSH1 0x1 DUP3 AND DUP1 PUSH2 0x1231 JUMPI PUSH1 0x7F DUP3 AND SWAP2 POP JUMPDEST PUSH1 0x20 DUP3 LT DUP2 SUB PUSH2 0x1244 JUMPI PUSH2 0x1243 PUSH2 0x11EA JUMP JUMPDEST JUMPDEST POP SWAP2 SWAP1 POP JUMP JUMPDEST PUSH32 0x4E487B7100000000000000000000000000000000000000000000000000000000 PUSH1 0x0 MSTORE PUSH1 0x32 PUSH1 0x4 MSTORE PUSH1 0x24 PUSH1 0x0 REVERT JUMPDEST PUSH1 0x0 DUP2 SWAP1 POP DUP2 PUSH1 0x0 MSTORE PUSH1 0x20 PUSH1 0x0 KECCAK256 SWAP1 POP SWAP2 SWAP1 POP JUMP JUMPDEST PUSH1 0x0 PUSH1 0x20 PUSH1 0x1F DUP4 ADD DIV SWAP1 POP SWAP2 SWAP1 POP JUMP JUMPDEST PUSH1 0x0 DUP3 DUP3 SHL SWAP1 POP SWAP3 SWAP2 POP POP JUMP JUMPDEST PUSH1 0x0 PUSH1 0x8 DUP4 MUL PUSH2 0x12DB PUSH32 0xFFFFFFFFFFFFFFFFFFFFFFFFFFFFFFFFFFFFFFFFFFFFFFFFFFFFFFFFFFFFFFFF DUP3 PUSH2 0x129E JUMP JUMPDEST PUSH2 0x12E5 DUP7 DUP4 PUSH2 0x129E JUMP JUMPDEST SWAP6 POP DUP1 NOT DUP5 AND SWAP4 POP DUP1 DUP7 AND DUP5 OR SWAP3 POP POP POP SWAP4 SWAP3 POP POP POP JUMP JUMPDEST PUSH1 0x0 DUP2 SWAP1 POP SWAP2 SWAP1 POP JUMP JUMPDEST PUSH1 0x0 PUSH2 0x1322 PUSH2 0x131D PUSH2 0x1318 DUP5 PUSH2 0x9BB JUMP JUMPDEST PUSH2 0x12FD JUMP JUMPDEST PUSH2 0x9BB JUMP JUMPDEST SWAP1 POP SWAP2 SWAP1 POP JUMP JUMPDEST PUSH1 0x0 DUP2 SWAP1 POP SWAP2 SWAP1 POP JUMP JUMPDEST PUSH2 0x133C DUP4 PUSH2 0x1307 JUMP JUMPDEST PUSH2 0x1350 PUSH2 0x1348 DUP3 PUSH2 0x1329 JUMP JUMPDEST DUP5 DUP5 SLOAD PUSH2 0x12AB JUMP JUMPDEST DUP3 SSTORE POP POP POP POP JUMP JUMPDEST PUSH1 0x0 SWAP1 JUMP JUMPDEST PUSH2 0x1365 PUSH2 0x1358 JUMP JUMPDEST PUSH2 0x1370 DUP2 DUP5 DUP5 PUSH2 0x1333 JUMP JUMPDEST POP POP POP JUMP JUMPDEST JUMPDEST DUP2 DUP2 LT ISZERO PUSH2 0x1394 JUMPI PUSH2 0x1389 PUSH1 0x0 DUP3 PUSH2 0x135D JUMP JUMPDEST PUSH1 0x1 DUP2 ADD SWAP1 POP PUSH2 0x1376 JUMP JUMPDEST POP POP JUMP JUMPDEST PUSH1 0x1F DUP3 GT ISZERO PUSH2 0x13D9 JUMPI PUSH2 0x13AA DUP2 PUSH2 0x1279 JUMP JUMPDEST PUSH2 0x13B3 DUP5 PUSH2 0x128E JUMP JUMPDEST DUP2 ADD PUSH1 0x20 DUP6 LT ISZERO PUSH2 0x13C2 JUMPI DUP2 SWAP1 POP JUMPDEST PUSH2 0x13D6 PUSH2 0x13CE DUP6 PUSH2 0x128E JUMP JUMPDEST DUP4 ADD DUP3 PUSH2 0x1375 JUMP JUMPDEST POP POP JUMPDEST POP POP POP JUMP JUMPDEST PUSH1 0x0 DUP3 DUP3 SHR SWAP1 POP SWAP3 SWAP2 POP POP JUMP JUMPDEST PUSH1 0x0 PUSH2 0x13FC PUSH1 0x0 NOT DUP5 PUSH1 0x8 MUL PUSH2 0x13DE JUMP JUMPDEST NOT DUP1 DUP4 AND SWAP2 POP POP SWAP3 SWAP2 POP POP JUMP JUMPDEST PUSH1 0x0 PUSH2 0x1415 DUP4 DUP4 PUSH2 0x13EB JUMP JUMPDEST SWAP2 POP DUP3 PUSH1 0x2 MUL DUP3 OR SWAP1 POP SWAP3 SWAP2 POP POP JUMP JUMPDEST PUSH2 0x142E DUP3 PUSH2 0xC12 JUMP JUMPDEST PUSH8 0xFFFFFFFFFFFFFFFF DUP2 GT ISZERO PUSH2 0x1447 JUMPI PUSH2 0x1446 PUSH2 0x1020 JUMP JUMPDEST JUMPDEST PUSH2 0x1451 DUP3 SLOAD PUSH2 0x1219 JUMP JUMPDEST PUSH2 0x145C DUP3 DUP3 DUP6 PUSH2 0x1398 JUMP JUMPDEST PUSH1 0x0 PUSH1 0x20 SWAP1 POP PUSH1 0x1F DUP4 GT PUSH1 0x1 DUP2 EQ PUSH2 0x148F JUMPI PUSH1 0x0 DUP5 ISZERO PUSH2 0x147D JUMPI DUP3 DUP8 ADD MLOAD SWAP1 POP JUMPDEST PUSH2 0x1487 DUP6 DUP3 PUSH2 0x1409 JUMP JUMPDEST DUP7 SSTORE POP PUSH2 0x14EF JUMP JUMPDEST PUSH1 0x1F NOT DUP5 AND PUSH2 0x149D DUP7 PUSH2 0x1279 JUMP JUMPDEST PUSH1 0x0 JUMPDEST DUP3 DUP2 LT ISZERO PUSH2 0x14C5 JUMPI DUP5 DUP10 ADD MLOAD DUP3 SSTORE PUSH1 0x1 DUP3 ADD SWAP2 POP PUSH1 0x20 DUP6 ADD SWAP5 POP PUSH1 0x20 DUP2 ADD SWAP1 POP PUSH2 0x14A0 JUMP JUMPDEST DUP7 DUP4 LT ISZERO PUSH2 0x14E2 JUMPI DUP5 DUP10 ADD MLOAD PUSH2 0x14DE PUSH1 0x1F DUP10 AND DUP3 PUSH2 0x13EB JUMP JUMPDEST DUP4 SSTORE POP JUMPDEST PUSH1 0x1 PUSH1 0x2 DUP9 MUL ADD DUP9 SSTORE POP POP POP JUMPDEST POP POP POP POP POP POP JUMP JUMPDEST PUSH32 0x4E487B7100000000000000000000000000000000000000000000000000000000 PUSH1 0x0 MSTORE PUSH1 0x11 PUSH1 0x4 MSTORE PUSH1 0x24 PUSH1 0x0 REVERT JUMPDEST PUSH1 0x0 PUSH2 0x1531 DUP3 PUSH2 0x9BB JUMP JUMPDEST SWAP2 POP PUSH32 0xFFFFFFFFFFFFFFFFFFFFFFFFFFFFFFFFFFFFFFFFFFFFFFFFFFFFFFFFFFFFFFFF DUP3 SUB PUSH2 0x1563 JUMPI PUSH2 0x1562 PUSH2 0x14F7 JUMP JUMPDEST JUMPDEST PUSH1 0x1 DUP3 ADD SWAP1 POP SWAP2 SWAP1 POP JUMP JUMPDEST PUSH1 0x0 PUSH2 0x1579 DUP3 PUSH2 0x9BB JUMP JUMPDEST SWAP2 POP PUSH2 0x1584 DUP4 PUSH2 0x9BB JUMP JUMPDEST SWAP3 POP DUP3 DUP3 SUB SWAP1 POP DUP2 DUP2 GT ISZERO PUSH2 0x159C JUMPI PUSH2 0x159B PUSH2 0x14F7 JUMP JUMPDEST JUMPDEST SWAP3 SWAP2 POP POP JUMP JUMPDEST PUSH1 0x0 DUP2 SWAP1 POP SWAP3 SWAP2 POP POP JUMP JUMPDEST POP JUMP JUMPDEST PUSH1 0x0 PUSH2 0x15BD PUSH1 0x0 DUP4 PUSH2 0x15A2 JUMP JUMPDEST SWAP2 POP PUSH2 0x15C8 DUP3 PUSH2 0x15AD JUMP JUMPDEST PUSH1 0x0 DUP3 ADD SWAP1 POP SWAP2 SWAP1 POP JUMP JUMPDEST PUSH1 0x0 PUSH2 0x15DE DUP3 PUSH2 0x15B0 JUMP JUMPDEST SWAP2 POP DUP2 SWAP1 POP SWAP2 SWAP1 POP JUMP JUMPDEST PUSH1 0x0 PUSH2 0x15F3 DUP3 PUSH2 0x9BB JUMP JUMPDEST SWAP2 POP PUSH2 0x15FE DUP4 PUSH2 0x9BB JUMP JUMPDEST SWAP3 POP DUP3 DUP3 ADD SWAP1 POP DUP1 DUP3 GT ISZERO PUSH2 0x1616 JUMPI PUSH2 0x1615 PUSH2 0x14F7 JUMP JUMPDEST JUMPDEST SWAP3 SWAP2 POP POP JUMP INVALID LOG2 PUSH5 0x6970667358 0x22 SLT KECCAK256 0xAC 0xD8 0xBC SUB SWAP11 MCOPY PUSH26 0x4059E8B8BC37D9AD2113F111B1C777E79989B062D5F390C4D364 PUSH20 0x6F6C634300081800330000000000000000000000 "
        },
        "methodIdentifiers": {
          "campaigns(uint256)": "141961bc",
          "createCampaign(address,string,string,uint256)": "b6abe10e",
          "donate(uint256)": "f14faf6f",
          "getCampaigns()": "a6b03633",
          "getDonators(uint256)": "0fa91fa9",
          "noOfCampaigns()": "17818e59"
        }
      }
    }
  }
}