{
  "_format": "hh-sol-artifact-1",
  "contractName": "Fund",
  "sourceName": "contracts/Fund.sol",
  "abi": [
    {
      "inputs": [
        {
          "internalType": "uint256",
          "name": "",
          "type": "uint256"
        }
      ],
      "name": "campaigns",
      "outputs": [
        {
          "internalType": "address",
          "name": "owner",
          "type": "address"
        },
        {
          "internalType": "string",
          "name": "title",
          "type": "string"
        },
        {
          "internalType": "string",
          "name": "descr",
          "type": "string"
        },
        {
          "internalType": "uint256",
          "name": "target",
          "type": "uint256"
        },
        {
          "internalType": "uint256",
          "name": "amountCollected",
          "type": "uint256"
        }
      ],
      "stateMutability": "view",
      "type": "function"
    },
    {
      "inputs": [
        {
          "internalType": "address",
          "name": "_owner",
          "type": "address"
        },
        {
          "internalType": "string",
          "name": "_title",
          "type": "string"
        },
        {
          "internalType": "string",
          "name": "_descr",
          "type": "string"
        },
        {
          "internalType": "uint256",
          "name": "_target",
          "type": "uint256"
        }
      ],
      "name": "createCampaign",
      "outputs": [
        {
          "internalType": "uint256",
          "name": "",
          "type": "uint256"
        }
      ],
      "stateMutability": "nonpayable",
      "type": "function"
    },
    {
      "inputs": [
        {
          "internalType": "uint256",
          "name": "_id",
          "type": "uint256"
        }
      ],
      "name": "donate",
      "outputs": [],
      "stateMutability": "payable",
      "type": "function"
    },
    {
      "inputs": [],
      "name": "getCampaigns",
      "outputs": [
        {
          "components": [
            {
              "internalType": "address",
              "name": "owner",
              "type": "address"
            },
            {
              "internalType": "string",
              "name": "title",
              "type": "string"
            },
            {
              "internalType": "string",
              "name": "descr",
              "type": "string"
            },
            {
              "internalType": "uint256",
              "name": "target",
              "type": "uint256"
            },
            {
              "internalType": "uint256",
              "name": "amountCollected",
              "type": "uint256"
            },
            {
              "internalType": "address[]",
              "name": "donators",
              "type": "address[]"
            },
            {
              "internalType": "uint256[]",
              "name": "donations",
              "type": "uint256[]"
            }
          ],
          "internalType": "struct Fund.Campaign[]",
          "name": "",
          "type": "tuple[]"
        }
      ],
      "stateMutability": "view",
      "type": "function"
    },
    {
      "inputs": [
        {
          "internalType": "uint256",
          "name": "_id",
          "type": "uint256"
        }
      ],
      "name": "getDonators",
      "outputs": [
        {
          "internalType": "address[]",
          "name": "",
          "type": "address[]"
        },
        {
          "internalType": "uint256[]",
          "name": "",
          "type": "uint256[]"
        }
      ],
      "stateMutability": "view",
      "type": "function"
    },
    {
      "inputs": [],
      "name": "noOfCampaigns",
      "outputs": [
        {
          "internalType": "uint256",
          "name": "",
          "type": "uint256"
        }
      ],
      "stateMutability": "view",
      "type": "function"
    }
  ],
  "bytecode": "0x6080604052600060015534801561001557600080fd5b506115d3806100256000396000f3fe6080604052600436106100555760003560e01c80630fa91fa91461005a578063141961bc1461009857806317818e59146100d9578063a6b0363314610104578063b6abe10e1461012f578063f14faf6f1461016c575b600080fd5b34801561006657600080fd5b50610081600480360381019061007c91906109b8565b610188565b60405161008f929190610b93565b60405180910390f35b3480156100a457600080fd5b506100bf60048036038101906100ba91906109b8565b610298565b6040516100d0959493929190610c78565b60405180910390f35b3480156100e557600080fd5b506100ee6103fe565b6040516100fb9190610cd9565b60405180910390f35b34801561011057600080fd5b50610119610404565b6040516101269190610f8f565b60405180910390f35b34801561013b57600080fd5b5061015660048036038101906101519190611112565b610737565b6040516101639190610cd9565b60405180910390f35b610186600480360381019061018191906109b8565b6107f1565b005b6060806000808481526020019081526020016000206005016000808581526020019081526020016000206006018180548060200260200160405190810160405280929190818152602001828054801561023657602002820191906000526020600020905b8160009054906101000a900473ffffffffffffffffffffffffffffffffffffffff1673ffffffffffffffffffffffffffffffffffffffff16815260200190600101908083116101ec575b505050505091508080548060200260200160405190810160405280929190818152602001828054801561028857602002820191906000526020600020905b815481526020019060010190808311610274575b5050505050905091509150915091565b60006020528060005260406000206000915090508060000160009054906101000a900473ffffffffffffffffffffffffffffffffffffffff16908060010180546102e1906111e0565b80601f016020809104026020016040519081016040528092919081815260200182805461030d906111e0565b801561035a5780601f1061032f5761010080835404028352916020019161035a565b820191906000526020600020905b81548152906001019060200180831161033d57829003601f168201915b50505050509080600201805461036f906111e0565b80601f016020809104026020016040519081016040528092919081815260200182805461039b906111e0565b80156103e85780601f106103bd576101008083540402835291602001916103e8565b820191906000526020600020905b8154815290600101906020018083116103cb57829003601f168201915b5050505050908060030154908060040154905085565b60015481565b6060600060015467ffffffffffffffff81111561042457610423610fe7565b5b60405190808252806020026020018201604052801561045d57816020015b61044a61091b565b8152602001906001900390816104425790505b50905060005b60015481101561072f5760008060008381526020019081526020016000209050806040518060e00160405290816000820160009054906101000a900473ffffffffffffffffffffffffffffffffffffffff1673ffffffffffffffffffffffffffffffffffffffff1673ffffffffffffffffffffffffffffffffffffffff1681526020016001820180546104f5906111e0565b80601f0160208091040260200160405190810160405280929190818152602001828054610521906111e0565b801561056e5780601f106105435761010080835404028352916020019161056e565b820191906000526020600020905b81548152906001019060200180831161055157829003601f168201915b50505050508152602001600282018054610587906111e0565b80601f01602080910402602001604051908101604052809291908181526020018280546105b3906111e0565b80156106005780601f106105d557610100808354040283529160200191610600565b820191906000526020600020905b8154815290600101906020018083116105e357829003601f168201915b505050505081526020016003820154815260200160048201548152602001600582018054806020026020016040519081016040528092919081815260200182805480156106a257602002820191906000526020600020905b8160009054906101000a900473ffffffffffffffffffffffffffffffffffffffff1673ffffffffffffffffffffffffffffffffffffffff1681526020019060010190808311610658575b50505050508152602001600682018054806020026020016040519081016040528092919081815260200182805480156106fa57602002820191906000526020600020905b8154815260200190600101908083116106e6575b50505050508152505083838151811061071657610715611211565b5b6020026020010181905250508080600101915050610463565b508091505090565b60008060008060015481526020019081526020016000209050858160000160006101000a81548173ffffffffffffffffffffffffffffffffffffffff021916908373ffffffffffffffffffffffffffffffffffffffff160217905550848160010190816107a491906113ec565b50838160020190816107b691906113ec565b50828160030181905550600160008154809291906107d3906114ed565b9190505550600180546107e69190611535565b915050949350505050565b60003490506000806000848152602001908152602001600020905080600501339080600181540180825580915050600190039060005260206000200160009091909190916101000a81548173ffffffffffffffffffffffffffffffffffffffff021916908373ffffffffffffffffffffffffffffffffffffffff160217905550806006018290806001815401808255809150506001900390600052602060002001600090919091909150558060000160009054906101000a900473ffffffffffffffffffffffffffffffffffffffff1673ffffffffffffffffffffffffffffffffffffffff166108fc839081150290604051600060405180830381858888f1935050505015610916578181600401600082825461090e9190611569565b925050819055505b505050565b6040518060e00160405280600073ffffffffffffffffffffffffffffffffffffffff1681526020016060815260200160608152602001600081526020016000815260200160608152602001606081525090565b6000604051905090565b600080fd5b600080fd5b6000819050919050565b61099581610982565b81146109a057600080fd5b50565b6000813590506109b28161098c565b92915050565b6000602082840312156109ce576109cd610978565b5b60006109dc848285016109a3565b91505092915050565b600081519050919050565b600082825260208201905092915050565b6000819050602082019050919050565b600073ffffffffffffffffffffffffffffffffffffffff82169050919050565b6000610a3c82610a11565b9050919050565b610a4c81610a31565b82525050565b6000610a5e8383610a43565b60208301905092915050565b6000602082019050919050565b6000610a82826109e5565b610a8c81856109f0565b9350610a9783610a01565b8060005b83811015610ac8578151610aaf8882610a52565b9750610aba83610a6a565b925050600181019050610a9b565b5085935050505092915050565b600081519050919050565b600082825260208201905092915050565b6000819050602082019050919050565b610b0a81610982565b82525050565b6000610b1c8383610b01565b60208301905092915050565b6000602082019050919050565b6000610b4082610ad5565b610b4a8185610ae0565b9350610b5583610af1565b8060005b83811015610b86578151610b6d8882610b10565b9750610b7883610b28565b925050600181019050610b59565b5085935050505092915050565b60006040820190508181036000830152610bad8185610a77565b90508181036020830152610bc18184610b35565b90509392505050565b610bd381610a31565b82525050565b600081519050919050565b600082825260208201905092915050565b60005b83811015610c13578082015181840152602081019050610bf8565b60008484015250505050565b6000601f19601f8301169050919050565b6000610c3b82610bd9565b610c458185610be4565b9350610c55818560208601610bf5565b610c5e81610c1f565b840191505092915050565b610c7281610982565b82525050565b600060a082019050610c8d6000830188610bca565b8181036020830152610c9f8187610c30565b90508181036040830152610cb38186610c30565b9050610cc26060830185610c69565b610ccf6080830184610c69565b9695505050505050565b6000602082019050610cee6000830184610c69565b92915050565b600081519050919050565b600082825260208201905092915050565b6000819050602082019050919050565b600082825260208201905092915050565b6000610d3c82610bd9565b610d468185610d20565b9350610d56818560208601610bf5565b610d5f81610c1f565b840191505092915050565b600082825260208201905092915050565b6000610d86826109e5565b610d908185610d6a565b9350610d9b83610a01565b8060005b83811015610dcc578151610db38882610a52565b9750610dbe83610a6a565b925050600181019050610d9f565b5085935050505092915050565b600082825260208201905092915050565b6000610df582610ad5565b610dff8185610dd9565b9350610e0a83610af1565b8060005b83811015610e3b578151610e228882610b10565b9750610e2d83610b28565b925050600181019050610e0e565b5085935050505092915050565b600060e083016000830151610e606000860182610a43565b5060208301518482036020860152610e788282610d31565b91505060408301518482036040860152610e928282610d31565b9150506060830151610ea76060860182610b01565b506080830151610eba6080860182610b01565b5060a083015184820360a0860152610ed28282610d7b565b91505060c083015184820360c0860152610eec8282610dea565b9150508091505092915050565b6000610f058383610e48565b905092915050565b6000602082019050919050565b6000610f2582610cf4565b610f2f8185610cff565b935083602082028501610f4185610d10565b8060005b85811015610f7d5784840389528151610f5e8582610ef9565b9450610f6983610f0d565b925060208a01995050600181019050610f45565b50829750879550505050505092915050565b60006020820190508181036000830152610fa98184610f1a565b905092915050565b610fba81610a31565b8114610fc557600080fd5b50565b600081359050610fd781610fb1565b92915050565b600080fd5b600080fd5b7f4e487b7100000000000000000000000000000000000000000000000000000000600052604160045260246000fd5b61101f82610c1f565b810181811067ffffffffffffffff8211171561103e5761103d610fe7565b5b80604052505050565b600061105161096e565b905061105d8282611016565b919050565b600067ffffffffffffffff82111561107d5761107c610fe7565b5b61108682610c1f565b9050602081019050919050565b82818337600083830152505050565b60006110b56110b084611062565b611047565b9050828152602081018484840111156110d1576110d0610fe2565b5b6110dc848285611093565b509392505050565b600082601f8301126110f9576110f8610fdd565b5b81356111098482602086016110a2565b91505092915050565b6000806000806080858703121561112c5761112b610978565b5b600061113a87828801610fc8565b945050602085013567ffffffffffffffff81111561115b5761115a61097d565b5b611167878288016110e4565b935050604085013567ffffffffffffffff8111156111885761118761097d565b5b611194878288016110e4565b92505060606111a5878288016109a3565b91505092959194509250565b7f4e487b7100000000000000000000000000000000000000000000000000000000600052602260045260246000fd5b600060028204905060018216806111f857607f821691505b60208210810361120b5761120a6111b1565b5b50919050565b7f4e487b7100000000000000000000000000000000000000000000000000000000600052603260045260246000fd5b60008190508160005260206000209050919050565b60006020601f8301049050919050565b600082821b905092915050565b6000600883026112a27fffffffffffffffffffffffffffffffffffffffffffffffffffffffffffffffff82611265565b6112ac8683611265565b95508019841693508086168417925050509392505050565b6000819050919050565b60006112e96112e46112df84610982565b6112c4565b610982565b9050919050565b6000819050919050565b611303836112ce565b61131761130f826112f0565b848454611272565b825550505050565b600090565b61132c61131f565b6113378184846112fa565b505050565b5b8181101561135b57611350600082611324565b60018101905061133d565b5050565b601f8211156113a05761137181611240565b61137a84611255565b81016020851015611389578190505b61139d61139585611255565b83018261133c565b50505b505050565b600082821c905092915050565b60006113c3600019846008026113a5565b1980831691505092915050565b60006113dc83836113b2565b9150826002028217905092915050565b6113f582610bd9565b67ffffffffffffffff81111561140e5761140d610fe7565b5b61141882546111e0565b61142382828561135f565b600060209050601f8311600181146114565760008415611444578287015190505b61144e85826113d0565b8655506114b6565b601f19841661146486611240565b60005b8281101561148c57848901518255600182019150602085019450602081019050611467565b868310156114a957848901516114a5601f8916826113b2565b8355505b6001600288020188555050505b505050505050565b7f4e487b7100000000000000000000000000000000000000000000000000000000600052601160045260246000fd5b60006114f882610982565b91507fffffffffffffffffffffffffffffffffffffffffffffffffffffffffffffffff820361152a576115296114be565b5b600182019050919050565b600061154082610982565b915061154b83610982565b9250828203905081811115611563576115626114be565b5b92915050565b600061157482610982565b915061157f83610982565b9250828201905080821115611597576115966114be565b5b9291505056fea26469706673582212202f5072bc4b75a3632c95611c1ab19675719d49b6e567e63e8fdd58d774ee88a064736f6c63430008180033",
  "linkReferences": {},
  "deployedLinkReferences": {}
}